:10000000020003C2A7C2A6C297743811E7740F1189
:10001000E7740111E7740611E7748011E720A70562
:1000200030A60880F8C297118080F2D297113180F3
:10003000EC745411F4744111F4744E11F4744B11B6
:10004000F4742011F4744C11F4744F11F4745711BA
:10005000F4740111E7748011E7744D11F4744F11B9
:10006000F4745411F4744F11F4745211F474201197
:10007000F4744F11F4744E11F430A6FD30A7FD2234
:10008000740111E7748011E7745411F4744111F490
:10009000744E11F4744B11F4742011F4744611F47D
:1000A000745511F4744C11F4744C11F420A7FD74C0
:1000B0000111E7748011E7744D11F4744F11F47459
:1000C0005411F4744F11F4745211F4742011F47437
:1000D0004F11F4744611F4744611F420A6FD740116
:1000E00011E7748011E722F5B0C290C291D292C29A
:1000F00092310122F5B0D290C291D292C2923101D6
:0A0100002279FF7AFFDAFED9FA2215
:00000001FF
